{
  "_format": "hh-sol-artifact-1",
  "contractName": "M2MPayments",
  "sourceName": "contracts/m2m_payments.sol",
  "abi": [
    {
      "inputs": [],
      "stateMutability": "nonpayable",
      "type": "constructor"
    },
    {
      "anonymous": false,
      "inputs": [
        {
          "indexed": false,
          "internalType": "uint256",
          "name": "amount",
          "type": "uint256"
        }
      ],
      "name": "CheckBalance",
      "type": "event"
    },
    {
      "inputs": [
        {
          "internalType": "address",
          "name": "",
          "type": "address"
        }
      ],
      "name": "balances",
      "outputs": [
        {
          "internalType": "uint256",
          "name": "",
          "type": "uint256"
        }
      ],
      "stateMutability": "view",
      "type": "function"
    },
    {
      "inputs": [],
      "name": "deposit",
      "outputs": [],
      "stateMutability": "payable",
      "type": "function"
    },
    {
      "inputs": [
        {
          "internalType": "address",
          "name": "account",
          "type": "address"
        }
      ],
      "name": "getBalance",
      "outputs": [
        {
          "internalType": "uint256",
          "name": "",
          "type": "uint256"
        }
      ],
      "stateMutability": "view",
      "type": "function"
    },
    {
      "inputs": [
        {
          "internalType": "address",
          "name": "user_account",
          "type": "address"
        }
      ],
      "name": "getUserBalance",
      "outputs": [
        {
          "internalType": "uint256",
          "name": "",
          "type": "uint256"
        }
      ],
      "stateMutability": "nonpayable",
      "type": "function"
    },
    {
      "inputs": [],
      "name": "owner",
      "outputs": [
        {
          "internalType": "address",
          "name": "",
          "type": "address"
        }
      ],
      "stateMutability": "view",
      "type": "function"
    },
    {
      "inputs": [
        {
          "internalType": "address",
          "name": "to",
          "type": "address"
        },
        {
          "internalType": "uint256",
          "name": "amount",
          "type": "uint256"
        }
      ],
      "name": "transfer",
      "outputs": [],
      "stateMutability": "nonpayable",
      "type": "function"
    },
    {
      "inputs": [
        {
          "internalType": "uint256",
          "name": "amount",
          "type": "uint256"
        }
      ],
      "name": "withdraw",
      "outputs": [],
      "stateMutability": "nonpayable",
      "type": "function"
    }
  ],
  "bytecode": "0x608060405234801561001057600080fd5b50336000806101000a81548173ffffffffffffffffffffffffffffffffffffffff021916908373ffffffffffffffffffffffffffffffffffffffff160217905550610bd9806100606000396000f3fe6080604052600436106100705760003560e01c80638da5cb5b1161004e5780638da5cb5b14610118578063a9059cbb14610143578063d0e30db01461016c578063f8b2cb4f1461017657610070565b806327e235e3146100755780632e1a7d4d146100b257806347734892146100db575b600080fd5b34801561008157600080fd5b5061009c600480360381019061009791906106dd565b6101b3565b6040516100a99190610723565b60405180910390f35b3480156100be57600080fd5b506100d960048036038101906100d4919061076a565b6101cb565b005b3480156100e757600080fd5b5061010260048036038101906100fd91906106dd565b610306565b60405161010f9190610723565b60405180910390f35b34801561012457600080fd5b5061012d610363565b60405161013a91906107a6565b60405180910390f35b34801561014f57600080fd5b5061016a600480360381019061016591906107c1565b610387565b005b610174610596565b005b34801561018257600080fd5b5061019d600480360381019061019891906106dd565b610631565b6040516101aa9190610723565b60405180910390f35b60016020528060005260406000206000915090505481565b60008054906101000a900473ffffffffffffffffffffffffffffffffffffffff1673ffffffffffffffffffffffffffffffffffffffff163373ffffffffffffffffffffffffffffffffffffffff1614610259576040517f08c379a000000000000000000000000000000000000000000000000000000000815260040161025090610884565b60405180910390fd5b4781111561029c576040517f08c379a0000000000000000000000000000000000000000000000000000000008152600401610293906108f0565b60405180910390fd5b60008054906101000a900473ffffffffffffffffffffffffffffffffffffffff1673ffffffffffffffffffffffffffffffffffffffff166108fc829081150290604051600060405180830381858888f19350505050158015610302573d6000803e3d6000fd5b5050565b6000808273ffffffffffffffffffffffffffffffffffffffff163190507f7c4b3ebe24b67f845d481885128ad41f55e5d927e00e2573453e1a8cf437b75c816040516103529190610723565b60405180910390a180915050919050565b60008054906101000a900473ffffffffffffffffffffffffffffffffffffffff1681565b600073ffffffffffffffffffffffffffffffffffffffff168273ffffffffffffffffffffffffffffffffffffffff16036103f6576040517f08c379a00000000000000000000000000000000000000000000000000000000081526004016103ed9061095c565b60405180910390fd5b80600160003373ffffffffffffffffffffffffffffffffffffffff1673ffffffffffffffffffffffffffffffffffffffff168152602001908152602001600020541015610478576040517f08c379a000000000000000000000000000000000000000000000000000000000815260040161046f906109c8565b60405180910390fd5b8173ffffffffffffffffffffffffffffffffffffffff163373ffffffffffffffffffffffffffffffffffffffff16036104e6576040517f08c379a00000000000000000000000000000000000000000000000000000000081526004016104dd90610a5a565b60405180910390fd5b80600160003373ffffffffffffffffffffffffffffffffffffffff1673ffffffffffffffffffffffffffffffffffffffff16815260200190815260200160002060008282546105359190610aa9565b9250508190555080600160008473ffffffffffffffffffffffffffffffffffffffff1673ffffffffffffffffffffffffffffffffffffffff168152602001908152602001600020600082825461058b9190610add565b925050819055505050565b600034116105d9576040517f08c379a00000000000000000000000000000000000000000000000000000000081526004016105d090610b83565b60405180910390fd5b34600160003373ffffffffffffffffffffffffffffffffffffffff1673ffffffffffffffffffffffffffffffffffffffff16815260200190815260200160002060008282546106289190610add565b92505081905550565b6000600160008373ffffffffffffffffffffffffffffffffffffffff1673ffffffffffffffffffffffffffffffffffffffff168152602001908152602001600020549050919050565b600080fd5b600073ffffffffffffffffffffffffffffffffffffffff82169050919050565b60006106aa8261067f565b9050919050565b6106ba8161069f565b81146106c557600080fd5b50565b6000813590506106d7816106b1565b92915050565b6000602082840312156106f3576106f261067a565b5b6000610701848285016106c8565b91505092915050565b6000819050919050565b61071d8161070a565b82525050565b60006020820190506107386000830184610714565b92915050565b6107478161070a565b811461075257600080fd5b50565b6000813590506107648161073e565b92915050565b6000602082840312156107805761077f61067a565b5b600061078e84828501610755565b91505092915050565b6107a08161069f565b82525050565b60006020820190506107bb6000830184610797565b92915050565b600080604083850312156107d8576107d761067a565b5b60006107e6858286016106c8565b92505060206107f785828601610755565b9150509250929050565b600082825260208201905092915050565b7f4f6e6c7920746865206f776e65722063616e2077697468647261772066756e6460008201527f732e000000000000000000000000000000000000000000000000000000000000602082015250565b600061086e602283610801565b915061087982610812565b604082019050919050565b6000602082019050818103600083015261089d81610861565b9050919050565b7f496e73756666696369656e7420636f6e74726163742062616c616e63652e0000600082015250565b60006108da601e83610801565b91506108e5826108a4565b602082019050919050565b60006020820190508181036000830152610909816108cd565b9050919050565b7f496e76616c696420616464726573730000000000000000000000000000000000600082015250565b6000610946600f83610801565b915061095182610910565b602082019050919050565b6000602082019050818103600083015261097581610939565b9050919050565b7f496e73756666696369656e742062616c616e63652e0000000000000000000000600082015250565b60006109b2601583610801565b91506109bd8261097c565b602082019050919050565b600060208201905081810360008301526109e1816109a5565b9050919050565b7f596f752063616e6e6f74207472616e736665722066756e647320746f20796f7560008201527f7273656c662e0000000000000000000000000000000000000000000000000000602082015250565b6000610a44602683610801565b9150610a4f826109e8565b604082019050919050565b60006020820190508181036000830152610a7381610a37565b9050919050565b7f4e487b7100000000000000000000000000000000000000000000000000000000600052601160045260246000fd5b6000610ab48261070a565b9150610abf8361070a565b9250828203905081811115610ad757610ad6610a7a565b5b92915050565b6000610ae88261070a565b9150610af38361070a565b9250828201905080821115610b0b57610b0a610a7a565b5b92915050565b7f596f75206d757374206465706f73697420736f6d652063727970746f6375727260008201527f656e63792e000000000000000000000000000000000000000000000000000000602082015250565b6000610b6d602583610801565b9150610b7882610b11565b604082019050919050565b60006020820190508181036000830152610b9c81610b60565b905091905056fea2646970667358221220ff809ecdcf54a8909941b4c983591167ae35bf324e098b226ffae2485a5df9b564736f6c63430008130033",
  "linkReferences": {},
  "deployedLinkReferences": {}
}